{
  "_format": "hh-sol-artifact-1",
  "contractName": "StakingRewards",
  "sourceName": "contracts/StakingRewards.sol",
  "abi": [
    {
      "inputs": [
        {
          "internalType": "address",
          "name": "_rewardsToken",
          "type": "address"
        },
        {
          "internalType": "address",
          "name": "_stakingToken",
          "type": "address"
        }
      ],
      "stateMutability": "nonpayable",
      "type": "constructor"
    },
    {
      "anonymous": false,
      "inputs": [
        {
          "indexed": false,
          "internalType": "address",
          "name": "token",
          "type": "address"
        },
        {
          "indexed": false,
          "internalType": "uint256",
          "name": "amount",
          "type": "uint256"
        }
      ],
      "name": "Recovered",
      "type": "event"
    },
    {
      "anonymous": false,
      "inputs": [
        {
          "indexed": false,
          "internalType": "uint256",
          "name": "reward",
          "type": "uint256"
        }
      ],
      "name": "RewardAdded",
      "type": "event"
    },
    {
      "anonymous": false,
      "inputs": [
        {
          "indexed": true,
          "internalType": "address",
          "name": "user",
          "type": "address"
        },
        {
          "indexed": false,
          "internalType": "uint256",
          "name": "reward",
          "type": "uint256"
        }
      ],
      "name": "RewardPaid",
      "type": "event"
    },
    {
      "anonymous": false,
      "inputs": [
        {
          "indexed": false,
          "internalType": "uint256",
          "name": "newDuration",
          "type": "uint256"
        }
      ],
      "name": "RewardsDurationUpdated",
      "type": "event"
    },
    {
      "anonymous": false,
      "inputs": [
        {
          "indexed": true,
          "internalType": "address",
          "name": "user",
          "type": "address"
        },
        {
          "indexed": false,
          "internalType": "uint256",
          "name": "amount",
          "type": "uint256"
        }
      ],
      "name": "Staked",
      "type": "event"
    },
    {
      "anonymous": false,
      "inputs": [
        {
          "indexed": true,
          "internalType": "address",
          "name": "user",
          "type": "address"
        },
        {
          "indexed": false,
          "internalType": "uint256",
          "name": "amount",
          "type": "uint256"
        }
      ],
      "name": "Withdrawn",
      "type": "event"
    },
    {
      "inputs": [
        {
          "internalType": "address",
          "name": "account",
          "type": "address"
        }
      ],
      "name": "balanceOf",
      "outputs": [
        {
          "internalType": "uint256",
          "name": "",
          "type": "uint256"
        }
      ],
      "stateMutability": "view",
      "type": "function"
    },
    {
      "inputs": [
        {
          "internalType": "address",
          "name": "account",
          "type": "address"
        }
      ],
      "name": "earned",
      "outputs": [
        {
          "internalType": "uint256",
          "name": "",
          "type": "uint256"
        }
      ],
      "stateMutability": "view",
      "type": "function"
    },
    {
      "inputs": [],
      "name": "exit",
      "outputs": [],
      "stateMutability": "nonpayable",
      "type": "function"
    },
    {
      "inputs": [],
      "name": "getReward",
      "outputs": [],
      "stateMutability": "nonpayable",
      "type": "function"
    },
    {
      "inputs": [],
      "name": "getRewardForDuration",
      "outputs": [
        {
          "internalType": "uint256",
          "name": "",
          "type": "uint256"
        }
      ],
      "stateMutability": "view",
      "type": "function"
    },
    {
      "inputs": [],
      "name": "lastTimeRewardApplicable",
      "outputs": [
        {
          "internalType": "uint256",
          "name": "",
          "type": "uint256"
        }
      ],
      "stateMutability": "view",
      "type": "function"
    },
    {
      "inputs": [],
      "name": "lastUpdateTime",
      "outputs": [
        {
          "internalType": "uint256",
          "name": "",
          "type": "uint256"
        }
      ],
      "stateMutability": "view",
      "type": "function"
    },
    {
      "inputs": [],
      "name": "periodFinish",
      "outputs": [
        {
          "internalType": "uint256",
          "name": "",
          "type": "uint256"
        }
      ],
      "stateMutability": "view",
      "type": "function"
    },
    {
      "inputs": [],
      "name": "rewardPerToken",
      "outputs": [
        {
          "internalType": "uint256",
          "name": "",
          "type": "uint256"
        }
      ],
      "stateMutability": "view",
      "type": "function"
    },
    {
      "inputs": [],
      "name": "rewardPerTokenStored",
      "outputs": [
        {
          "internalType": "uint256",
          "name": "",
          "type": "uint256"
        }
      ],
      "stateMutability": "view",
      "type": "function"
    },
    {
      "inputs": [],
      "name": "rewardRate",
      "outputs": [
        {
          "internalType": "uint256",
          "name": "",
          "type": "uint256"
        }
      ],
      "stateMutability": "view",
      "type": "function"
    },
    {
      "inputs": [
        {
          "internalType": "address",
          "name": "",
          "type": "address"
        }
      ],
      "name": "rewards",
      "outputs": [
        {
          "internalType": "uint256",
          "name": "",
          "type": "uint256"
        }
      ],
      "stateMutability": "view",
      "type": "function"
    },
    {
      "inputs": [],
      "name": "rewardsDuration",
      "outputs": [
        {
          "internalType": "uint256",
          "name": "",
          "type": "uint256"
        }
      ],
      "stateMutability": "view",
      "type": "function"
    },
    {
      "inputs": [],
      "name": "rewardsToken",
      "outputs": [
        {
          "internalType": "contract IERC20",
          "name": "",
          "type": "address"
        }
      ],
      "stateMutability": "view",
      "type": "function"
    },
    {
      "inputs": [
        {
          "internalType": "uint256",
          "name": "amount",
          "type": "uint256"
        }
      ],
      "name": "stake",
      "outputs": [],
      "stateMutability": "nonpayable",
      "type": "function"
    },
    {
      "inputs": [],
      "name": "stakingToken",
      "outputs": [
        {
          "internalType": "contract IERC20",
          "name": "",
          "type": "address"
        }
      ],
      "stateMutability": "view",
      "type": "function"
    },
    {
      "inputs": [],
      "name": "totalSupply",
      "outputs": [
        {
          "internalType": "uint256",
          "name": "",
          "type": "uint256"
        }
      ],
      "stateMutability": "view",
      "type": "function"
    },
    {
      "inputs": [
        {
          "internalType": "address",
          "name": "",
          "type": "address"
        }
      ],
      "name": "userRewardPerTokenPaid",
      "outputs": [
        {
          "internalType": "uint256",
          "name": "",
          "type": "uint256"
        }
      ],
      "stateMutability": "view",
      "type": "function"
    },
    {
      "inputs": [
        {
          "internalType": "uint256",
          "name": "amount",
          "type": "uint256"
        }
      ],
      "name": "withdraw",
      "outputs": [],
      "stateMutability": "nonpayable",
      "type": "function"
    }
  ],
  "bytecode": "0x60806040526000600355606460045562093a806005553480156200002257600080fd5b5060405162001b5038038062001b508339818101604052810190620000489190620000f1565b600160008190555081600160006101000a81548173ffffffffffffffffffffffffffffffffffffffff021916908373ffffffffffffffffffffffffffffffffffffffff16021790555080600260006101000a81548173ffffffffffffffffffffffffffffffffffffffff021916908373ffffffffffffffffffffffffffffffffffffffff16021790555050506200018b565b600081519050620000eb8162000171565b92915050565b600080604083850312156200010b576200010a6200016c565b5b60006200011b85828601620000da565b92505060206200012e85828601620000da565b9150509250929050565b600062000145826200014c565b9050919050565b600073ffffffffffffffffffffffffffffffffffffffff82169050919050565b600080fd5b6200017c8162000138565b81146200018857600080fd5b50565b6119b5806200019b6000396000f3fe608060405234801561001057600080fd5b50600436106101205760003560e01c80637b0a47ee116100ad578063cd3daf9d11610071578063cd3daf9d146102f9578063d1af0c7d14610317578063df136d6514610335578063e9fad8ee14610353578063ebe2b12b1461035d57610120565b80637b0a47ee1461025357806380faa57d146102715780638b8763471461028f578063a694fc3a146102bf578063c8f33c91146102db57610120565b80632e1a7d4d116100f45780632e1a7d4d146101c1578063386a9525146101dd5780633d18b912146101fb57806370a082311461020557806372f702f31461023557610120565b80628cc262146101255780630700037d1461015557806318160ddd146101855780631c1f78eb146101a3575b600080fd5b61013f600480360381019061013a919061120d565b61037b565b60405161014c9190611571565b60405180910390f35b61016f600480360381019061016a919061120d565b61047d565b60405161017c9190611571565b60405180910390f35b61018d610495565b60405161019a9190611571565b60405180910390f35b6101ab61049f565b6040516101b89190611571565b60405180910390f35b6101db60048036038101906101d69190611267565b6104b6565b005b6101e5610774565b6040516101f29190611571565b60405180910390f35b61020361077a565b005b61021f600480360381019061021a919061120d565b6109e6565b60405161022c9190611571565b60405180910390f35b61023d610a2f565b60405161024a9190611474565b60405180910390f35b61025b610a55565b6040516102689190611571565b60405180910390f35b610279610a5b565b6040516102869190611571565b60405180910390f35b6102a960048036038101906102a4919061120d565b610a75565b6040516102b69190611571565b60405180910390f35b6102d960048036038101906102d49190611267565b610a8d565b005b6102e3610d4d565b6040516102f09190611571565b60405180910390f35b610301610d53565b60405161030e9190611571565b60405180910390f35b61031f610dbe565b60405161032c9190611474565b60405180910390f35b61033d610de4565b60405161034a9190611571565b60405180910390f35b61035b610dea565b005b610365610e3c565b6040516103729190611571565b60405180910390f35b6000600960008373ffffffffffffffffffffffffffffffffffffffff1673ffffffffffffffffffffffffffffffffffffffff16815260200190815260200160002054670de0b6b3a7640000600860008573ffffffffffffffffffffffffffffffffffffffff1673ffffffffffffffffffffffffffffffffffffffff1681526020019081526020016000205461040e610d53565b610418919061169f565b600b60008673ffffffffffffffffffffffffffffffffffffffff1673ffffffffffffffffffffffffffffffffffffffff168152602001908152602001600020546104629190611645565b61046c9190611614565b61047691906115be565b9050919050565b60096020528060005260406000206000915090505481565b6000600a54905090565b60006005546004546104b19190611645565b905090565b600260005414156104fc576040517f08c379a00000000000000000000000000000000000000000000000000000000081526004016104f390611551565b60405180910390fd5b60026000819055503361050d610d53565b60078190555061051b610a5b565b600681905550600073ffffffffffffffffffffffffffffffffffffffff168173ffffffffffffffffffffffffffffffffffffffff16146105e85761055e8161037b565b600960008373ffffffffffffffffffffffffffffffffffffffff1673ffffffffffffffffffffffffffffffffffffffff16815260200190815260200160002081905550600754600860008373ffffffffffffffffffffffffffffffffffffffff1673ffffffffffffffffffffffffffffffffffffffff168152602001908152602001600020819055505b6000821161062b576040517f08c379a0000000000000000000000000000000000000000000000000000000008152600401610622906114f1565b60405180910390fd5b81600a54610639919061169f565b600a8190555081600b60003373ffffffffffffffffffffffffffffffffffffffff1673ffffffffffffffffffffffffffffffffffffffff1681526020019081526020016000205461068a919061169f565b600b60003373ffffffffffffffffffffffffffffffffffffffff1673ffffffffffffffffffffffffffffffffffffffff1681526020019081526020016000208190555061071a3383600260009054906101000a900473ffffffffffffffffffffffffffffffffffffffff1673ffffffffffffffffffffffffffffffffffffffff16610e429092919063ffffffff16565b3373ffffffffffffffffffffffffffffffffffffffff167f7084f5476618d8e60b11ef0d7d3f06914655adb8793e28ff7f018d4c76d505d5836040516107609190611571565b60405180910390a250600160008190555050565b60055481565b600260005414156107c0576040517f08c379a00000000000000000000000000000000000000000000000000000000081526004016107b790611551565b60405180910390fd5b6002600081905550336107d1610d53565b6007819055506107df610a5b565b600681905550600073ffffffffffffffffffffffffffffffffffffffff168173ffffffffffffffffffffffffffffffffffffffff16146108ac576108228161037b565b600960008373ffffffffffffffffffffffffffffffffffffffff1673ffffffffffffffffffffffffffffffffffffffff16815260200190815260200160002081905550600754600860008373ffffffffffffffffffffffffffffffffffffffff1673ffffffffffffffffffffffffffffffffffffffff168152602001908152602001600020819055505b6000600960003373ffffffffffffffffffffffffffffffffffffffff1673ffffffffffffffffffffffffffffffffffffffff16815260200190815260200160002054905060008111156109da576000600960003373ffffffffffffffffffffffffffffffffffffffff1673ffffffffffffffffffffffffffffffffffffffff1681526020019081526020016000208190555061098b3382600160009054906101000a900473ffffffffffffffffffffffffffffffffffffffff1673ffffffffffffffffffffffffffffffffffffffff16610e429092919063ffffffff16565b3373ffffffffffffffffffffffffffffffffffffffff167fe2403640ba68fed3a2f88b7557551d1993f84b99bb10ff833f0cf8db0c5e0486826040516109d19190611571565b60405180910390a25b50506001600081905550565b6000600b60008373ffffffffffffffffffffffffffffffffffffffff1673ffffffffffffffffffffffffffffffffffffffff168152602001908152602001600020549050919050565b600260009054906101000a900473ffffffffffffffffffffffffffffffffffffffff1681565b60045481565b60006003544210610a6e57600354610a70565b425b905090565b60086020528060005260406000206000915090505481565b60026000541415610ad3576040517f08c379a0000000000000000000000000000000000000000000000000000000008152600401610aca90611551565b60405180910390fd5b600260008190555033610ae4610d53565b600781905550610af2610a5b565b600681905550600073ffffffffffffffffffffffffffffffffffffffff168173ffffffffffffffffffffffffffffffffffffffff1614610bbf57610b358161037b565b600960008373ffffffffffffffffffffffffffffffffffffffff1673ffffffffffffffffffffffffffffffffffffffff16815260200190815260200160002081905550600754600860008373ffffffffffffffffffffffffffffffffffffffff1673ffffffffffffffffffffffffffffffffffffffff168152602001908152602001600020819055505b60008211610c02576040517f08c379a0000000000000000000000000000000000000000000000000000000008152600401610bf9906114b1565b60405180910390fd5b81600a54610c1091906115be565b600a8190555081600b60003373ffffffffffffffffffffffffffffffffffffffff1673ffffffffffffffffffffffffffffffffffffffff16815260200190815260200160002054610c6191906115be565b600b60003373ffffffffffffffffffffffffffffffffffffffff1673ffffffffffffffffffffffffffffffffffffffff16815260200190815260200160002081905550610cf3333084600260009054906101000a900473ffffffffffffffffffffffffffffffffffffffff1673ffffffffffffffffffffffffffffffffffffffff16610ec8909392919063ffffffff16565b3373ffffffffffffffffffffffffffffffffffffffff167f9e71bc8eea02a63969f509818f2dafb9254532904319f9dbda79b67bd34a5f3d83604051610d399190611571565b60405180910390a250600160008190555050565b60065481565b600080600a541415610d69576007549050610dbb565b600a54670de0b6b3a7640000600454600654610d83610a5b565b610d8d919061169f565b610d979190611645565b610da19190611645565b610dab9190611614565b600754610db891906115be565b90505b90565b600160009054906101000a900473ffffffffffffffffffffffffffffffffffffffff1681565b60075481565b610e32600b60003373ffffffffffffffffffffffffffffffffffffffff1673ffffffffffffffffffffffffffffffffffffffff168152602001908152602001600020546104b6565b610e3a61077a565b565b60035481565b610ec38363a9059cbb60e01b8484604051602401610e6192919061144b565b604051602081830303815290604052907bffffffffffffffffffffffffffffffffffffffffffffffffffffffff19166020820180517bffffffffffffffffffffffffffffffffffffffffffffffffffffffff8381831617835250505050610f51565b505050565b610f4b846323b872dd60e01b858585604051602401610ee993929190611414565b604051602081830303815290604052907bffffffffffffffffffffffffffffffffffffffffffffffffffffffff19166020820180517bffffffffffffffffffffffffffffffffffffffffffffffffffffffff8381831617835250505050610f51565b50505050565b6000610fb3826040518060400160405280602081526020017f5361666545524332303a206c6f772d6c6576656c2063616c6c206661696c65648152508573ffffffffffffffffffffffffffffffffffffffff166110189092919063ffffffff16565b90506000815111156110135780806020019051810190610fd3919061123a565b611012576040517f08c379a000000000000000000000000000000000000000000000000000000000815260040161100990611531565b60405180910390fd5b5b505050565b60606110278484600085611030565b90509392505050565b606082471015611075576040517f08c379a000000000000000000000000000000000000000000000000000000000815260040161106c906114d1565b60405180910390fd5b61107e85611144565b6110bd576040517f08c379a00000000000000000000000000000000000000000000000000000000081526004016110b490611511565b60405180910390fd5b6000808673ffffffffffffffffffffffffffffffffffffffff1685876040516110e691906113fd565b60006040518083038185875af1925050503d8060008114611123576040519150601f19603f3d011682016040523d82523d6000602084013e611128565b606091505b5091509150611138828286611167565b92505050949350505050565b6000808273ffffffffffffffffffffffffffffffffffffffff163b119050919050565b60608315611177578290506111c7565b60008351111561118a5782518084602001fd5b816040517f08c379a00000000000000000000000000000000000000000000000000000000081526004016111be919061148f565b60405180910390fd5b9392505050565b6000813590506111dd8161193a565b92915050565b6000815190506111f281611951565b92915050565b60008135905061120781611968565b92915050565b600060208284031215611223576112226117e2565b5b6000611231848285016111ce565b91505092915050565b6000602082840312156112505761124f6117e2565b5b600061125e848285016111e3565b91505092915050565b60006020828403121561127d5761127c6117e2565b5b600061128b848285016111f8565b91505092915050565b61129d816116d3565b82525050565b60006112ae8261158c565b6112b881856115a2565b93506112c8818560208601611751565b80840191505092915050565b6112dd8161171b565b82525050565b60006112ee82611597565b6112f881856115ad565b9350611308818560208601611751565b611311816117e7565b840191505092915050565b6000611329600e836115ad565b9150611334826117f8565b602082019050919050565b600061134c6026836115ad565b915061135782611821565b604082019050919050565b600061136f6011836115ad565b915061137a82611870565b602082019050919050565b6000611392601d836115ad565b915061139d82611899565b602082019050919050565b60006113b5602a836115ad565b91506113c0826118c2565b604082019050919050565b60006113d8601f836115ad565b91506113e382611911565b602082019050919050565b6113f781611711565b82525050565b600061140982846112a3565b915081905092915050565b60006060820190506114296000830186611294565b6114366020830185611294565b61144360408301846113ee565b949350505050565b60006040820190506114606000830185611294565b61146d60208301846113ee565b9392505050565b600060208201905061148960008301846112d4565b92915050565b600060208201905081810360008301526114a981846112e3565b905092915050565b600060208201905081810360008301526114ca8161131c565b9050919050565b600060208201905081810360008301526114ea8161133f565b9050919050565b6000602082019050818103600083015261150a81611362565b9050919050565b6000602082019050818103600083015261152a81611385565b9050919050565b6000602082019050818103600083015261154a816113a8565b9050919050565b6000602082019050818103600083015261156a816113cb565b9050919050565b600060208201905061158660008301846113ee565b92915050565b600081519050919050565b600081519050919050565b600081905092915050565b600082825260208201905092915050565b60006115c982611711565b91506115d483611711565b9250827fffffffffffffffffffffffffffffffffffffffffffffffffffffffffffffffff0382111561160957611608611784565b5b828201905092915050565b600061161f82611711565b915061162a83611711565b92508261163a576116396117b3565b5b828204905092915050565b600061165082611711565b915061165b83611711565b9250817fffffffffffffffffffffffffffffffffffffffffffffffffffffffffffffffff048311821515161561169457611693611784565b5b828202905092915050565b60006116aa82611711565b91506116b583611711565b9250828210156116c8576116c7611784565b5b828203905092915050565b60006116de826116f1565b9050919050565b60008115159050919050565b600073ffffffffffffffffffffffffffffffffffffffff82169050919050565b6000819050919050565b60006117268261172d565b9050919050565b60006117388261173f565b9050919050565b600061174a826116f1565b9050919050565b60005b8381101561176f578082015181840152602081019050611754565b8381111561177e576000848401525b50505050565b7f4e487b7100000000000000000000000000000000000000000000000000000000600052601160045260246000fd5b7f4e487b7100000000000000000000000000000000000000000000000000000000600052601260045260246000fd5b600080fd5b6000601f19601f8301169050919050565b7f43616e6e6f74207374616b652030000000000000000000000000000000000000600082015250565b7f416464726573733a20696e73756666696369656e742062616c616e636520666f60008201527f722063616c6c0000000000000000000000000000000000000000000000000000602082015250565b7f43616e6e6f742077697468647261772030000000000000000000000000000000600082015250565b7f416464726573733a2063616c6c20746f206e6f6e2d636f6e7472616374000000600082015250565b7f5361666545524332303a204552433230206f7065726174696f6e20646964206e60008201527f6f74207375636365656400000000000000000000000000000000000000000000602082015250565b7f5265656e7472616e637947756172643a207265656e7472616e742063616c6c00600082015250565b611943816116d3565b811461194e57600080fd5b50565b61195a816116e5565b811461196557600080fd5b50565b61197181611711565b811461197c57600080fd5b5056fea2646970667358221220e19ec920356c4afd7d97937d1fbad15739339235e5f9e68f403fc3078986ba0164736f6c63430008070033",
  "linkReferences": {},
  "deployedLinkReferences": {}
}